{
	"data": {
		"bytecode": {
			"linkReferences": {},
			"object": "608060405234801561001057600080fd5b50610b3f806100206000396000f3fe608060405234801561001057600080fd5b50600436106100365760003560e01c80635e9bc5361461003b578063da7323b31461006b575b600080fd5b61005560048036038101906100509190610490565b61009b565b604051610062919061051a565b60405180910390f35b6100856004803603810190610080919061059a565b6100cd565b604051610092919061051a565b60405180910390f35b6000806100ab8787878787610236565b8051906020012090506100c18360001b8261028a565b91505095945050505050565b6000806100dd8989898989610236565b905060006100f58660001b838051906020012061028a565b905060008173ffffffffffffffffffffffffffffffffffffffff163b1461012057809250505061022b565b7f07fba7bba1191da7ee1155dcfa0030701c9c9a9cc34a93b991fc6fd0c9268d8f818b8b8b8b8b60405161015996959493929190610658565b60405180910390a161017060008760001b8461029f565b9050600085859050146102255760008173ffffffffffffffffffffffffffffffffffffffff1686866040516101a69291906106f8565b6000604051808303816000865af19150503d80600081146101e3576040519150601f19603f3d011682016040523d82523d6000602084013e6101e8565b606091505b5050905080610223576040517f19b991a800000000000000000000000000000000000000000000000000000000815260040160405180910390fd5b505b80925050505b979650505050505050565b606085828686866040516020016102509493929190610711565b6040516020818303038152906040526040516020016102709291906108b0565b604051602081830303815290604052905095945050505050565b60006102978383306103ae565b905092915050565b600080844710156102e5576040517f08c379a00000000000000000000000000000000000000000000000000000000081526004016102dc9061094b565b60405180910390fd5b6000835103610329576040517f08c379a0000000000000000000000000000000000000000000000000000000008152600401610320906109b7565b60405180910390fd5b8383516020850187f59050600073ffffffffffffffffffffffffffffffffffffffff168173ffffffffffffffffffffffffffffffffffffffff16036103a3576040517f08c379a000000000000000000000000000000000000000000000000000000000815260040161039a90610a23565b60405180910390fd5b809150509392505050565b60008060ff60f81b8386866040516020016103cc9493929190610abb565b6040516020818303038152906040528051906020012090508060001c9150509392505050565b600080fd5b600080fd5b600073ffffffffffffffffffffffffffffffffffffffff82169050919050565b6000610427826103fc565b9050919050565b6104378161041c565b811461044257600080fd5b50565b6000813590506104548161042e565b92915050565b6000819050919050565b61046d8161045a565b811461047857600080fd5b50565b60008135905061048a81610464565b92915050565b600080600080600060a086880312156104ac576104ab6103f2565b5b60006104ba88828901610445565b95505060206104cb8882890161047b565b94505060406104dc88828901610445565b93505060606104ed8882890161047b565b92505060806104fe8882890161047b565b9150509295509295909350565b6105148161041c565b82525050565b600060208201905061052f600083018461050b565b92915050565b600080fd5b600080fd5b600080fd5b60008083601f84011261055a57610559610535565b5b8235905067ffffffffffffffff8111156105775761057661053a565b5b6020830191508360018202830111156105935761059261053f565b5b9250929050565b600080600080600080600060c0888a0312156105b9576105b86103f2565b5b60006105c78a828b01610445565b97505060206105d88a828b0161047b565b96505060406105e98a828b01610445565b95505060606105fa8a828b0161047b565b945050608061060b8a828b0161047b565b93505060a088013567ffffffffffffffff81111561062c5761062b6103f7565b5b6106388a828b01610544565b925092505092959891949750929550565b6106528161045a565b82525050565b600060c08201905061066d600083018961050b565b61067a602083018861050b565b6106876040830187610649565b610694606083018661050b565b6106a16080830185610649565b6106ae60a0830184610649565b979650505050505050565b600081905092915050565b82818337600083830152505050565b60006106df83856106b9565b93506106ec8385846106c4565b82840190509392505050565b60006107058284866106d3565b91508190509392505050565b60006080820190506107266000830187610649565b6107336020830186610649565b610740604083018561050b565b61074d6060830184610649565b95945050505050565b600081905092915050565b7f3d60ad80600a3d3981f3363d3d373d3d3d363d73000000000000000000000000600082015250565b6000610797601483610756565b91506107a282610761565b601482019050919050565b60008160601b9050919050565b60006107c5826107ad565b9050919050565b60006107d7826107ba565b9050919050565b6107ef6107ea8261041c565b6107cc565b82525050565b7f5af43d82803e903d91602b57fd5bf30000000000000000000000000000000000600082015250565b600061082b600f83610756565b9150610836826107f5565b600f82019050919050565b600081519050919050565b60005b8381101561086a57808201518184015260208101905061084f565b83811115610879576000848401525b50505050565b600061088a82610841565b61089481856106b9565b93506108a481856020860161084c565b80840191505092915050565b60006108bb8261078a565b91506108c782856107de565b6014820191506108d68261081e565b91506108e2828461087f565b91508190509392505050565b600082825260208201905092915050565b7f437265617465323a20696e73756666696369656e742062616c616e6365000000600082015250565b6000610935601d836108ee565b9150610940826108ff565b602082019050919050565b6000602082019050818103600083015261096481610928565b9050919050565b7f437265617465323a2062797465636f6465206c656e677468206973207a65726f600082015250565b60006109a16020836108ee565b91506109ac8261096b565b602082019050919050565b600060208201905081810360008301526109d081610994565b9050919050565b7f437265617465323a204661696c6564206f6e206465706c6f7900000000000000600082015250565b6000610a0d6019836108ee565b9150610a18826109d7565b602082019050919050565b60006020820190508181036000830152610a3c81610a00565b9050919050565b60007fff0000000000000000000000000000000000000000000000000000000000000082169050919050565b6000819050919050565b610a8a610a8582610a43565b610a6f565b82525050565b6000819050919050565b6000819050919050565b610ab5610ab082610a90565b610a9a565b82525050565b6000610ac78287610a79565b600182019150610ad782866107de565b601482019150610ae78285610aa4565b602082019150610af78284610aa4565b6020820191508190509594505050505056fea2646970667358221220c6b260ed738b113b942ee314fa8f104765c401da339930b49c679ca44d14817f64736f6c634300080e0033",
			"opcodes": "PUSH1 0x80 PUSH1 0x40 MSTORE CALLVALUE DUP1 ISZERO PUSH2 0x10 JUMPI PUSH1 0x0 DUP1 REVERT JUMPDEST POP PUSH2 0xB3F DUP1 PUSH2 0x20 PUSH1 0x0 CODECOPY PUSH1 0x0 RETURN INVALID PUSH1 0x80 PUSH1 0x40 MSTORE CALLVALUE DUP1 ISZERO PUSH2 0x10 JUMPI PUSH1 0x0 DUP1 REVERT JUMPDEST POP PUSH1 0x4 CALLDATASIZE LT PUSH2 0x36 JUMPI PUSH1 0x0 CALLDATALOAD PUSH1 0xE0 SHR DUP1 PUSH4 0x5E9BC536 EQ PUSH2 0x3B JUMPI DUP1 PUSH4 0xDA7323B3 EQ PUSH2 0x6B JUMPI JUMPDEST PUSH1 0x0 DUP1 REVERT JUMPDEST PUSH2 0x55 PUSH1 0x4 DUP1 CALLDATASIZE SUB DUP2 ADD SWAP1 PUSH2 0x50 SWAP2 SWAP1 PUSH2 0x490 JUMP JUMPDEST PUSH2 0x9B JUMP JUMPDEST PUSH1 0x40 MLOAD PUSH2 0x62 SWAP2 SWAP1 PUSH2 0x51A JUMP JUMPDEST PUSH1 0x40 MLOAD DUP1 SWAP2 SUB SWAP1 RETURN JUMPDEST PUSH2 0x85 PUSH1 0x4 DUP1 CALLDATASIZE SUB DUP2 ADD SWAP1 PUSH2 0x80 SWAP2 SWAP1 PUSH2 0x59A JUMP JUMPDEST PUSH2 0xCD JUMP JUMPDEST PUSH1 0x40 MLOAD PUSH2 0x92 SWAP2 SWAP1 PUSH2 0x51A JUMP JUMPDEST PUSH1 0x40 MLOAD DUP1 SWAP2 SUB SWAP1 RETURN JUMPDEST PUSH1 0x0 DUP1 PUSH2 0xAB DUP8 DUP8 DUP8 DUP8 DUP8 PUSH2 0x236 JUMP JUMPDEST DUP1 MLOAD SWAP1 PUSH1 0x20 ADD KECCAK256 SWAP1 POP PUSH2 0xC1 DUP4 PUSH1 0x0 SHL DUP3 PUSH2 0x28A JUMP JUMPDEST SWAP2 POP POP SWAP6 SWAP5 POP POP POP POP POP JUMP JUMPDEST PUSH1 0x0 DUP1 PUSH2 0xDD DUP10 DUP10 DUP10 DUP10 DUP10 PUSH2 0x236 JUMP JUMPDEST SWAP1 POP PUSH1 0x0 PUSH2 0xF5 DUP7 PUSH1 0x0 SHL DUP4 DUP1 MLOAD SWAP1 PUSH1 0x20 ADD KECCAK256 PUSH2 0x28A JUMP JUMPDEST SWAP1 POP PUSH1 0x0 DUP2 PUSH20 0xFFFFFFFFFFFFFFFFFFFFFFFFFFFFFFFFFFFFFFFF AND EXTCODESIZE EQ PUSH2 0x120 JUMPI DUP1 SWAP3 POP POP POP PUSH2 0x22B JUMP JUMPDEST PUSH32 0x7FBA7BBA1191DA7EE1155DCFA0030701C9C9A9CC34A93B991FC6FD0C9268D8F DUP2 DUP12 DUP12 DUP12 DUP12 DUP12 PUSH1 0x40 MLOAD PUSH2 0x159 SWAP7 SWAP6 SWAP5 SWAP4 SWAP3 SWAP2 SWAP1 PUSH2 0x658 JUMP JUMPDEST PUSH1 0x40 MLOAD DUP1 SWAP2 SUB SWAP1 LOG1 PUSH2 0x170 PUSH1 0x0 DUP8 PUSH1 0x0 SHL DUP5 PUSH2 0x29F JUMP JUMPDEST SWAP1 POP PUSH1 0x0 DUP6 DUP6 SWAP1 POP EQ PUSH2 0x225 JUMPI PUSH1 0x0 DUP2 PUSH20 0xFFFFFFFFFFFFFFFFFFFFFFFFFFFFFFFFFFFFFFFF AND DUP7 DUP7 PUSH1 0x40 MLOAD PUSH2 0x1A6 SWAP3 SWAP2 SWAP1 PUSH2 0x6F8 JUMP JUMPDEST PUSH1 0x0 PUSH1 0x40 MLOAD DUP1 DUP4 SUB DUP2 PUSH1 0x0 DUP7 GAS CALL SWAP2 POP POP RETURNDATASIZE DUP1 PUSH1 0x0 DUP2 EQ PUSH2 0x1E3 JUMPI PUSH1 0x40 MLOAD SWAP2 POP PUSH1 0x1F NOT PUSH1 0x3F RETURNDATASIZE ADD AND DUP3 ADD PUSH1 0x40 MSTORE RETURNDATASIZE DUP3 MSTORE RETURNDATASIZE PUSH1 0x0 PUSH1 0x20 DUP5 ADD RETURNDATACOPY PUSH2 0x1E8 JUMP JUMPDEST PUSH1 0x60 SWAP2 POP JUMPDEST POP POP SWAP1 POP DUP1 PUSH2 0x223 JUMPI PUSH1 0x40 MLOAD PUSH32 0x19B991A800000000000000000000000000000000000000000000000000000000 DUP2 MSTORE PUSH1 0x4 ADD PUSH1 0x40 MLOAD DUP1 SWAP2 SUB SWAP1 REVERT JUMPDEST POP JUMPDEST DUP1 SWAP3 POP POP POP JUMPDEST SWAP8 SWAP7 POP POP POP POP POP POP POP JUMP JUMPDEST PUSH1 0x60 DUP6 DUP3 DUP7 DUP7 DUP7 PUSH1 0x40 MLOAD PUSH1 0x20 ADD PUSH2 0x250 SWAP5 SWAP4 SWAP3 SWAP2 SWAP1 PUSH2 0x711 JUMP JUMPDEST PUSH1 0x40 MLOAD PUSH1 0x20 DUP2 DUP4 SUB SUB DUP2 MSTORE SWAP1 PUSH1 0x40 MSTORE PUSH1 0x40 MLOAD PUSH1 0x20 ADD PUSH2 0x270 SWAP3 SWAP2 SWAP1 PUSH2 0x8B0 JUMP JUMPDEST PUSH1 0x40 MLOAD PUSH1 0x20 DUP2 DUP4 SUB SUB DUP2 MSTORE SWAP1 PUSH1 0x40 MSTORE SWAP1 POP SWAP6 SWAP5 POP POP POP POP POP JUMP JUMPDEST PUSH1 0x0 PUSH2 0x297 DUP4 DUP4 ADDRESS PUSH2 0x3AE JUMP JUMPDEST SWAP1 POP SWAP3 SWAP2 POP POP JUMP JUMPDEST PUSH1 0x0 DUP1 DUP5 SELFBALANCE LT ISZERO PUSH2 0x2E5 JUMPI PUSH1 0x40 MLOAD PUSH32 0x8C379A000000000000000000000000000000000000000000000000000000000 DUP2 MSTORE PUSH1 0x4 ADD PUSH2 0x2DC SWAP1 PUSH2 0x94B JUMP JUMPDEST PUSH1 0x40 MLOAD DUP1 SWAP2 SUB SWAP1 REVERT JUMPDEST PUSH1 0x0 DUP4 MLOAD SUB PUSH2 0x329 JUMPI PUSH1 0x40 MLOAD PUSH32 0x8C379A000000000000000000000000000000000000000000000000000000000 DUP2 MSTORE PUSH1 0x4 ADD PUSH2 0x320 SWAP1 PUSH2 0x9B7 JUMP JUMPDEST PUSH1 0x40 MLOAD DUP1 SWAP2 SUB SWAP1 REVERT JUMPDEST DUP4 DUP4 MLOAD PUSH1 0x20 DUP6 ADD DUP8 CREATE2 SWAP1 POP PUSH1 0x0 PUSH20 0xFFFFFFFFFFFFFFFFFFFFFFFFFFFFFFFFFFFFFFFF AND DUP2 PUSH20 0xFFFFFFFFFFFFFFFFFFFFFFFFFFFFFFFFFFFFFFFF AND SUB PUSH2 0x3A3 JUMPI PUSH1 0x40 MLOAD PUSH32 0x8C379A000000000000000000000000000000000000000000000000000000000 DUP2 MSTORE PUSH1 0x4 ADD PUSH2 0x39A SWAP1 PUSH2 0xA23 JUMP JUMPDEST PUSH1 0x40 MLOAD DUP1 SWAP2 SUB SWAP1 REVERT JUMPDEST DUP1 SWAP2 POP POP SWAP4 SWAP3 POP POP POP JUMP JUMPDEST PUSH1 0x0 DUP1 PUSH1 0xFF PUSH1 0xF8 SHL DUP4 DUP7 DUP7 PUSH1 0x40 MLOAD PUSH1 0x20 ADD PUSH2 0x3CC SWAP5 SWAP4 SWAP3 SWAP2 SWAP1 PUSH2 0xABB JUMP JUMPDEST PUSH1 0x40 MLOAD PUSH1 0x20 DUP2 DUP4 SUB SUB DUP2 MSTORE SWAP1 PUSH1 0x40 MSTORE DUP1 MLOAD SWAP1 PUSH1 0x20 ADD KECCAK256 SWAP1 POP DUP1 PUSH1 0x0 SHR SWAP2 POP POP SWAP4 SWAP3 POP POP POP JUMP JUMPDEST PUSH1 0x0 DUP1 REVERT JUMPDEST PUSH1 0x0 DUP1 REVERT JUMPDEST PUSH1 0x0 PUSH20 0xFFFFFFFFFFFFFFFFFFFFFFFFFFFFFFFFFFFFFFFF DUP3 AND SWAP1 POP SWAP2 SWAP1 POP JUMP JUMPDEST PUSH1 0x0 PUSH2 0x427 DUP3 PUSH2 0x3FC JUMP JUMPDEST SWAP1 POP SWAP2 SWAP1 POP JUMP JUMPDEST PUSH2 0x437 DUP2 PUSH2 0x41C JUMP JUMPDEST DUP2 EQ PUSH2 0x442 JUMPI PUSH1 0x0 DUP1 REVERT JUMPDEST POP JUMP JUMPDEST PUSH1 0x0 DUP2 CALLDATALOAD SWAP1 POP PUSH2 0x454 DUP2 PUSH2 0x42E JUMP JUMPDEST SWAP3 SWAP2 POP POP JUMP JUMPDEST PUSH1 0x0 DUP2 SWAP1 POP SWAP2 SWAP1 POP JUMP JUMPDEST PUSH2 0x46D DUP2 PUSH2 0x45A JUMP JUMPDEST DUP2 EQ PUSH2 0x478 JUMPI PUSH1 0x0 DUP1 REVERT JUMPDEST POP JUMP JUMPDEST PUSH1 0x0 DUP2 CALLDATALOAD SWAP1 POP PUSH2 0x48A DUP2 PUSH2 0x464 JUMP JUMPDEST SWAP3 SWAP2 POP POP JUMP JUMPDEST PUSH1 0x0 DUP1 PUSH1 0x0 DUP1 PUSH1 0x0 PUSH1 0xA0 DUP7 DUP9 SUB SLT ISZERO PUSH2 0x4AC JUMPI PUSH2 0x4AB PUSH2 0x3F2 JUMP JUMPDEST JUMPDEST PUSH1 0x0 PUSH2 0x4BA DUP9 DUP3 DUP10 ADD PUSH2 0x445 JUMP JUMPDEST SWAP6 POP POP PUSH1 0x20 PUSH2 0x4CB DUP9 DUP3 DUP10 ADD PUSH2 0x47B JUMP JUMPDEST SWAP5 POP POP PUSH1 0x40 PUSH2 0x4DC DUP9 DUP3 DUP10 ADD PUSH2 0x445 JUMP JUMPDEST SWAP4 POP POP PUSH1 0x60 PUSH2 0x4ED DUP9 DUP3 DUP10 ADD PUSH2 0x47B JUMP JUMPDEST SWAP3 POP POP PUSH1 0x80 PUSH2 0x4FE DUP9 DUP3 DUP10 ADD PUSH2 0x47B JUMP JUMPDEST SWAP2 POP POP SWAP3 SWAP6 POP SWAP3 SWAP6 SWAP1 SWAP4 POP JUMP JUMPDEST PUSH2 0x514 DUP2 PUSH2 0x41C JUMP JUMPDEST DUP3 MSTORE POP POP JUMP JUMPDEST PUSH1 0x0 PUSH1 0x20 DUP3 ADD SWAP1 POP PUSH2 0x52F PUSH1 0x0 DUP4 ADD DUP5 PUSH2 0x50B JUMP JUMPDEST SWAP3 SWAP2 POP POP JUMP JUMPDEST PUSH1 0x0 DUP1 REVERT JUMPDEST PUSH1 0x0 DUP1 REVERT JUMPDEST PUSH1 0x0 DUP1 REVERT JUMPDEST PUSH1 0x0 DUP1 DUP4 PUSH1 0x1F DUP5 ADD SLT PUSH2 0x55A JUMPI PUSH2 0x559 PUSH2 0x535 JUMP JUMPDEST JUMPDEST DUP3 CALLDATALOAD SWAP1 POP PUSH8 0xFFFFFFFFFFFFFFFF DUP2 GT ISZERO PUSH2 0x577 JUMPI PUSH2 0x576 PUSH2 0x53A JUMP JUMPDEST JUMPDEST PUSH1 0x20 DUP4 ADD SWAP2 POP DUP4 PUSH1 0x1 DUP3 MUL DUP4 ADD GT ISZERO PUSH2 0x593 JUMPI PUSH2 0x592 PUSH2 0x53F JUMP JUMPDEST JUMPDEST SWAP3 POP SWAP3 SWAP1 POP JUMP JUMPDEST PUSH1 0x0 DUP1 PUSH1 0x0 DUP1 PUSH1 0x0 DUP1 PUSH1 0x0 PUSH1 0xC0 DUP9 DUP11 SUB SLT ISZERO PUSH2 0x5B9 JUMPI PUSH2 0x5B8 PUSH2 0x3F2 JUMP JUMPDEST JUMPDEST PUSH1 0x0 PUSH2 0x5C7 DUP11 DUP3 DUP12 ADD PUSH2 0x445 JUMP JUMPDEST SWAP8 POP POP PUSH1 0x20 PUSH2 0x5D8 DUP11 DUP3 DUP12 ADD PUSH2 0x47B JUMP JUMPDEST SWAP7 POP POP PUSH1 0x40 PUSH2 0x5E9 DUP11 DUP3 DUP12 ADD PUSH2 0x445 JUMP JUMPDEST SWAP6 POP POP PUSH1 0x60 PUSH2 0x5FA DUP11 DUP3 DUP12 ADD PUSH2 0x47B JUMP JUMPDEST SWAP5 POP POP PUSH1 0x80 PUSH2 0x60B DUP11 DUP3 DUP12 ADD PUSH2 0x47B JUMP JUMPDEST SWAP4 POP POP PUSH1 0xA0 DUP9 ADD CALLDATALOAD PUSH8 0xFFFFFFFFFFFFFFFF DUP2 GT ISZERO PUSH2 0x62C JUMPI PUSH2 0x62B PUSH2 0x3F7 JUMP JUMPDEST JUMPDEST PUSH2 0x638 DUP11 DUP3 DUP12 ADD PUSH2 0x544 JUMP JUMPDEST SWAP3 POP SWAP3 POP POP SWAP3 SWAP6 SWAP9 SWAP2 SWAP5 SWAP8 POP SWAP3 SWAP6 POP JUMP JUMPDEST PUSH2 0x652 DUP2 PUSH2 0x45A JUMP JUMPDEST DUP3 MSTORE POP POP JUMP JUMPDEST PUSH1 0x0 PUSH1 0xC0 DUP3 ADD SWAP1 POP PUSH2 0x66D PUSH1 0x0 DUP4 ADD DUP10 PUSH2 0x50B JUMP JUMPDEST PUSH2 0x67A PUSH1 0x20 DUP4 ADD DUP9 PUSH2 0x50B JUMP JUMPDEST PUSH2 0x687 PUSH1 0x40 DUP4 ADD DUP8 PUSH2 0x649 JUMP JUMPDEST PUSH2 0x694 PUSH1 0x60 DUP4 ADD DUP7 PUSH2 0x50B JUMP JUMPDEST PUSH2 0x6A1 PUSH1 0x80 DUP4 ADD DUP6 PUSH2 0x649 JUMP JUMPDEST PUSH2 0x6AE PUSH1 0xA0 DUP4 ADD DUP5 PUSH2 0x649 JUMP JUMPDEST SWAP8 SWAP7 POP POP POP POP POP POP POP JUMP JUMPDEST PUSH1 0x0 DUP2 SWAP1 POP SWAP3 SWAP2 POP POP JUMP JUMPDEST DUP3 DUP2 DUP4 CALLDATACOPY PUSH1 0x0 DUP4 DUP4 ADD MSTORE POP POP POP JUMP JUMPDEST PUSH1 0x0 PUSH2 0x6DF DUP4 DUP6 PUSH2 0x6B9 JUMP JUMPDEST SWAP4 POP PUSH2 0x6EC DUP4 DUP6 DUP5 PUSH2 0x6C4 JUMP JUMPDEST DUP3 DUP5 ADD SWAP1 POP SWAP4 SWAP3 POP POP POP JUMP JUMPDEST PUSH1 0x0 PUSH2 0x705 DUP3 DUP5 DUP7 PUSH2 0x6D3 JUMP JUMPDEST SWAP2 POP DUP2 SWAP1 POP SWAP4 SWAP3 POP POP POP JUMP JUMPDEST PUSH1 0x0 PUSH1 0x80 DUP3 ADD SWAP1 POP PUSH2 0x726 PUSH1 0x0 DUP4 ADD DUP8 PUSH2 0x649 JUMP JUMPDEST PUSH2 0x733 PUSH1 0x20 DUP4 ADD DUP7 PUSH2 0x649 JUMP JUMPDEST PUSH2 0x740 PUSH1 0x40 DUP4 ADD DUP6 PUSH2 0x50B JUMP JUMPDEST PUSH2 0x74D PUSH1 0x60 DUP4 ADD DUP5 PUSH2 0x649 JUMP JUMPDEST SWAP6 SWAP5 POP POP POP POP POP JUMP JUMPDEST PUSH1 0x0 DUP2 SWAP1 POP SWAP3 SWAP2 POP POP JUMP JUMPDEST PUSH32 0x3D60AD80600A3D3981F3363D3D373D3D3D363D73000000000000000000000000 PUSH1 0x0 DUP3 ADD MSTORE POP JUMP JUMPDEST PUSH1 0x0 PUSH2 0x797 PUSH1 0x14 DUP4 PUSH2 0x756 JUMP JUMPDEST SWAP2 POP PUSH2 0x7A2 DUP3 PUSH2 0x761 JUMP JUMPDEST PUSH1 0x14 DUP3 ADD SWAP1 POP SWAP2 SWAP1 POP JUMP JUMPDEST PUSH1 0x0 DUP2 PUSH1 0x60 SHL SWAP1 POP SWAP2 SWAP1 POP JUMP JUMPDEST PUSH1 0x0 PUSH2 0x7C5 DUP3 PUSH2 0x7AD JUMP JUMPDEST SWAP1 POP SWAP2 SWAP1 POP JUMP JUMPDEST PUSH1 0x0 PUSH2 0x7D7 DUP3 PUSH2 0x7BA JUMP JUMPDEST SWAP1 POP SWAP2 SWAP1 POP JUMP JUMPDEST PUSH2 0x7EF PUSH2 0x7EA DUP3 PUSH2 0x41C JUMP JUMPDEST PUSH2 0x7CC JUMP JUMPDEST DUP3 MSTORE POP POP JUMP JUMPDEST PUSH32 0x5AF43D82803E903D91602B57FD5BF30000000000000000000000000000000000 PUSH1 0x0 DUP3 ADD MSTORE POP JUMP JUMPDEST PUSH1 0x0 PUSH2 0x82B PUSH1 0xF DUP4 PUSH2 0x756 JUMP JUMPDEST SWAP2 POP PUSH2 0x836 DUP3 PUSH2 0x7F5 JUMP JUMPDEST PUSH1 0xF DUP3 ADD SWAP1 POP SWAP2 SWAP1 POP JUMP JUMPDEST PUSH1 0x0 DUP2 MLOAD SWAP1 POP SWAP2 SWAP1 POP JUMP JUMPDEST PUSH1 0x0 JUMPDEST DUP4 DUP2 LT ISZERO PUSH2 0x86A JUMPI DUP1 DUP3 ADD MLOAD DUP2 DUP5 ADD MSTORE PUSH1 0x20 DUP2 ADD SWAP1 POP PUSH2 0x84F JUMP JUMPDEST DUP4 DUP2 GT ISZERO PUSH2 0x879 JUMPI PUSH1 0x0 DUP5 DUP5 ADD MSTORE JUMPDEST POP POP POP POP JUMP JUMPDEST PUSH1 0x0 PUSH2 0x88A DUP3 PUSH2 0x841 JUMP JUMPDEST PUSH2 0x894 DUP2 DUP6 PUSH2 0x6B9 JUMP JUMPDEST SWAP4 POP PUSH2 0x8A4 DUP2 DUP6 PUSH1 0x20 DUP7 ADD PUSH2 0x84C JUMP JUMPDEST DUP1 DUP5 ADD SWAP2 POP POP SWAP3 SWAP2 POP POP JUMP JUMPDEST PUSH1 0x0 PUSH2 0x8BB DUP3 PUSH2 0x78A JUMP JUMPDEST SWAP2 POP PUSH2 0x8C7 DUP3 DUP6 PUSH2 0x7DE JUMP JUMPDEST PUSH1 0x14 DUP3 ADD SWAP2 POP PUSH2 0x8D6 DUP3 PUSH2 0x81E JUMP JUMPDEST SWAP2 POP PUSH2 0x8E2 DUP3 DUP5 PUSH2 0x87F JUMP JUMPDEST SWAP2 POP DUP2 SWAP1 POP SWAP4 SWAP3 POP POP POP JUMP JUMPDEST PUSH1 0x0 DUP3 DUP3 MSTORE PUSH1 0x20 DUP3 ADD SWAP1 POP SWAP3 SWAP2 POP POP JUMP JUMPDEST PUSH32 0x437265617465323A20696E73756666696369656E742062616C616E6365000000 PUSH1 0x0 DUP3 ADD MSTORE POP JUMP JUMPDEST PUSH1 0x0 PUSH2 0x935 PUSH1 0x1D DUP4 PUSH2 0x8EE JUMP JUMPDEST SWAP2 POP PUSH2 0x940 DUP3 PUSH2 0x8FF JUMP JUMPDEST PUSH1 0x20 DUP3 ADD SWAP1 POP SWAP2 SWAP1 POP JUMP JUMPDEST PUSH1 0x0 PUSH1 0x20 DUP3 ADD SWAP1 POP DUP2 DUP2 SUB PUSH1 0x0 DUP4 ADD MSTORE PUSH2 0x964 DUP2 PUSH2 0x928 JUMP JUMPDEST SWAP1 POP SWAP2 SWAP1 POP JUMP JUMPDEST PUSH32 0x437265617465323A2062797465636F6465206C656E677468206973207A65726F PUSH1 0x0 DUP3 ADD MSTORE POP JUMP JUMPDEST PUSH1 0x0 PUSH2 0x9A1 PUSH1 0x20 DUP4 PUSH2 0x8EE JUMP JUMPDEST SWAP2 POP PUSH2 0x9AC DUP3 PUSH2 0x96B JUMP JUMPDEST PUSH1 0x20 DUP3 ADD SWAP1 POP SWAP2 SWAP1 POP JUMP JUMPDEST PUSH1 0x0 PUSH1 0x20 DUP3 ADD SWAP1 POP DUP2 DUP2 SUB PUSH1 0x0 DUP4 ADD MSTORE PUSH2 0x9D0 DUP2 PUSH2 0x994 JUMP JUMPDEST SWAP1 POP SWAP2 SWAP1 POP JUMP JUMPDEST PUSH32 0x437265617465323A204661696C6564206F6E206465706C6F7900000000000000 PUSH1 0x0 DUP3 ADD MSTORE POP JUMP JUMPDEST PUSH1 0x0 PUSH2 0xA0D PUSH1 0x19 DUP4 PUSH2 0x8EE JUMP JUMPDEST SWAP2 POP PUSH2 0xA18 DUP3 PUSH2 0x9D7 JUMP JUMPDEST PUSH1 0x20 DUP3 ADD SWAP1 POP SWAP2 SWAP1 POP JUMP JUMPDEST PUSH1 0x0 PUSH1 0x20 DUP3 ADD SWAP1 POP DUP2 DUP2 SUB PUSH1 0x0 DUP4 ADD MSTORE PUSH2 0xA3C DUP2 PUSH2 0xA00 JUMP JUMPDEST SWAP1 POP SWAP2 SWAP1 POP JUMP JUMPDEST PUSH1 0x0 PUSH32 0xFF00000000000000000000000000000000000000000000000000000000000000 DUP3 AND SWAP1 POP SWAP2 SWAP1 POP JUMP JUMPDEST PUSH1 0x0 DUP2 SWAP1 POP SWAP2 SWAP1 POP JUMP JUMPDEST PUSH2 0xA8A PUSH2 0xA85 DUP3 PUSH2 0xA43 JUMP JUMPDEST PUSH2 0xA6F JUMP JUMPDEST DUP3 MSTORE POP POP JUMP JUMPDEST PUSH1 0x0 DUP2 SWAP1 POP SWAP2 SWAP1 POP JUMP JUMPDEST PUSH1 0x0 DUP2 SWAP1 POP SWAP2 SWAP1 POP JUMP JUMPDEST PUSH2 0xAB5 PUSH2 0xAB0 DUP3 PUSH2 0xA90 JUMP JUMPDEST PUSH2 0xA9A JUMP JUMPDEST DUP3 MSTORE POP POP JUMP JUMPDEST PUSH1 0x0 PUSH2 0xAC7 DUP3 DUP8 PUSH2 0xA79 JUMP JUMPDEST PUSH1 0x1 DUP3 ADD SWAP2 POP PUSH2 0xAD7 DUP3 DUP7 PUSH2 0x7DE JUMP JUMPDEST PUSH1 0x14 DUP3 ADD SWAP2 POP PUSH2 0xAE7 DUP3 DUP6 PUSH2 0xAA4 JUMP JUMPDEST PUSH1 0x20 DUP3 ADD SWAP2 POP PUSH2 0xAF7 DUP3 DUP5 PUSH2 0xAA4 JUMP JUMPDEST PUSH1 0x20 DUP3 ADD SWAP2 POP DUP2 SWAP1 POP SWAP6 SWAP5 POP POP POP POP POP JUMP INVALID LOG2 PUSH5 0x6970667358 0x22 SLT KECCAK256 0xC6 0xB2 PUSH1 0xED PUSH20 0x8B113B942EE314FA8F104765C401DA339930B49C PUSH8 0x9CA44D14817F6473 PUSH16 0x6C634300080E00330000000000000000 "
		},
		"gasEstimates": {
			"creation": {
				"codeDepositCost": "575800",
				"executionCost": "606",
				"totalCost": "576406"
			},
			"external": {
				"account(address,uint256,address,uint256,uint256)": "infinite",
				"createAccount(address,uint256,address,uint256,uint256,bytes)": "infinite"
			}
		},
		"methodIdentifiers": {
			"account(address,uint256,address,uint256,uint256)": "5e9bc536",
			"createAccount(address,uint256,address,uint256,uint256,bytes)": "da7323b3"
		}
	},
	"abi": [
		{
			"inputs": [],
			"name": "InitializationFailed",
			"type": "error"
		},
		{
			"anonymous": false,
			"inputs": [
				{
					"indexed": false,
					"internalType": "address",
					"name": "account",
					"type": "address"
				},
				{
					"indexed": false,
					"internalType": "address",
					"name": "implementation",
					"type": "address"
				},
				{
					"indexed": false,
					"internalType": "uint256",
					"name": "chainId",
					"type": "uint256"
				},
				{
					"indexed": false,
					"internalType": "address",
					"name": "tokenContract",
					"type": "address"
				},
				{
					"indexed": false,
					"internalType": "uint256",
					"name": "tokenId",
					"type": "uint256"
				},
				{
					"indexed": false,
					"internalType": "uint256",
					"name": "salt",
					"type": "uint256"
				}
			],
			"name": "AccountCreated",
			"type": "event"
		},
		{
			"inputs": [
				{
					"internalType": "address",
					"name": "implementation",
					"type": "address"
				},
				{
					"internalType": "uint256",
					"name": "chainId",
					"type": "uint256"
				},
				{
					"internalType": "address",
					"name": "tokenContract",
					"type": "address"
				},
				{
					"internalType": "uint256",
					"name": "tokenId",
					"type": "uint256"
				},
				{
					"internalType": "uint256",
					"name": "salt",
					"type": "uint256"
				}
			],
			"name": "account",
			"outputs": [
				{
					"internalType": "address",
					"name": "",
					"type": "address"
				}
			],
			"stateMutability": "view",
			"type": "function"
		},
		{
			"inputs": [
				{
					"internalType": "address",
					"name": "implementation",
					"type": "address"
				},
				{
					"internalType": "uint256",
					"name": "chainId",
					"type": "uint256"
				},
				{
					"internalType": "address",
					"name": "tokenContract",
					"type": "address"
				},
				{
					"internalType": "uint256",
					"name": "tokenId",
					"type": "uint256"
				},
				{
					"internalType": "uint256",
					"name": "salt",
					"type": "uint256"
				},
				{
					"internalType": "bytes",
					"name": "initData",
					"type": "bytes"
				}
			],
			"name": "createAccount",
			"outputs": [
				{
					"internalType": "address",
					"name": "",
					"type": "address"
				}
			],
			"stateMutability": "nonpayable",
			"type": "function"
		}
	]
}